:020000040800F2
:10000000B84800209D01000863430008CD2C00087B
:1000100061430008690B0008B550000800000000AB
:1000200000000000000000000000000005010008C2
:10003000B50E00080000000049010008FD4B000853
:10004000B7010008B7010008B7010008B7010008B0
:10005000B7010008B7010008B7010008B7010008A0
:10006000B7010008B7010008B7010008B701000890
:10007000B7010008B7010008B7010008B701000880
:10008000B7010008B7010008B7010008B701000870
:10009000B7010008B7010008B7010008B701000860
:1000A000B7010008B7010008B7010008B701000850
:1000B000B7010008794C0008B7010008DD2C0008E2
:1000C000D12C0008B7010008B7010008B7010008EB
:1000D000B7010008A9500008B7010008B7010008DF
:1000E000B70E0008B7010008B7010008DFF810D00C
:1000F00000F0A6FC00480047556E0008AFF30080F2
:10010000B8480020224B19680868B0E8F00F80F367
:100110000988BFF36F8F4FF0000080F311884EF015
:100120000D0E70470000000006480068006880F36C
:10013000088862B661B6BFF34F8FBFF36F8F00DFE1
:1001400000BF00BF08ED00E0EFF30980BFF36F8F41
:100150000F4B1A6820E9F00F106008B54FF05000FF
:1001600080F31188BFF34F8FBFF36F8F08F0EAFF62
:100170004FF0000080F31188BDE808401968086856
:10018000B0E8F00F80F30988BFF36F8F704700BFAE
:1001900014000020EFF305807047000006488047F8
:1001A00006480047FEE7FEE7FEE7FEE7FEE7FEE75C
:1001B000FEE7FEE7FEE7FEE7754C0008ED000008ED
:1001C0002DE9F0410024061B254671F1000605DAF1
:1001D00001240027D0EB070067EB0101161E73F125
:1001E000000605DA0027D2EB0702012567EB0303BF
:1001F00000F0A2FA86460E4617469C46AC4204D052
:100200000025D0EB050E65EB010624B10020D2EBF2
:10021000000760EB030C704631463A466346BDE882
:10022000F081202A04DB203A21FA02F000217047F5
:1002300021FA02F3D040C2F120029140084319464E
:10024000704740EA01039B0703D009E008C9121F69
:1002500008C0042AFAD203E011F8013B00F8013B80
:10026000521EF9D27047D2B201E000F8012B491EAC
:10027000FBD270470022F6E710B513460A46044643
:100280001946FFF7F0FF204610BD10B5044604E004
:100290000B7800F8013B03B1491C521EF8D22046EE
:1002A00010BD10B5002200E0521C835C8C5CA342A0
:1002B00001D1002BF8D1D8B2E1B2401A10BD30B54F
:1002C00004460020034600E05B1C934203D2E05C3E
:1002D000CD5C401BF8D030BDF0B480EA0102D40FF1
:1002E0004200B2EB410F02D20246084611464A00D4
:1002F00042D0C30DDDB2C1F3C752AD1A202D35DA9D
:10030000C1F3160141F4000204B15242C5F12006C6
:1003100002FA06F12A411044B3EBD05F23D0C4B1F6
:10032000012DA0EBC35009DCF0BC4FF0004202EA03
:10033000C352DBB200F5000000F038BA400000F113
:10034000807000EBC350A0F1807040EAD17049008A
:1003500009E0490841EAC071A0EBC35000F5000074
:10036000400800EBC350F0BC00F017BA6142012214
:1003700002EB4101001BF6E7F0BC704781F0004141
:10038000AAE780F00040A7E780EA010210B502F07A
:100390000043400022D04A001FD0010E01EB126141
:1003A000C0F35600C2F3560240F4000042F40002CB
:1003B000A0FB022000047F39140400D0401C50EA46
:1003C000124001D44000491EC2B20C0604EBD0100A
:1003D000401C4008802A02D003E0002010BD20F01D
:1003E0000100002900DA0020184310BD30B480EA73
:1003F000010202F0004530F0004221F0004013D02D
:1004000090B1C30DD40DC2F31601C0F31600E41A67
:1004100041F4000140F400027D34914201D3641C98
:1004200000E04900002C02DA30BC002070474FF495
:1004300000000023914201D3891A034340084FEA88
:100440004101F7D151B1914202D14FF0004105E095
:1004500002D24FF0010101E06FF0010103EBC45043
:10046000284430BC00F099B9420005D0C0F3C7520F
:100470005242914201DC0020704700EBC1507047AE
:100480002DE9FE4F81EA030404F0004421F000410D
:1004900000944FF0000B23F0004350EA01045ED0BB
:1004A00052EA03045BD0C3F30A54C1F30A552C4447
:1004B000A4F2F3340194A0FB0254C1F3130141F4FC
:1004C0008011C3F3130343F4801301FB024400FBC8
:1004D000034E840A970A44EA815447EA8357A4FBEF
:1004E000076802958D0A05FB07854FEA932C04FBEC
:1004F0000C542705029D4FEA065847EA1637B5EB1C
:1005000008056EEB070C870E920E47EA811742EA48
:100510008312A7FB0201B6EB0B0164EB00042B0D69
:1005200043EA0C335E1844EB1C50DA465146E7FBB5
:100530000201C5F313044FEA0B3343EA14534FEAA5
:100540000432019C43EA0603A4F10C040294009CCB
:10055000CDE900B400F067F903B0BDE8F08F0020EA
:100560000146F9E72DE9F04D81EA030404F0004B60
:1005700021F0004514464FF0000A23F0004150EAF4
:10058000050220D054EA01021DD0C5F30A570246E5
:10059000C5F31303C1F31300C1F30A5640F48015E9
:1005A00043F48013A7EB0608101BD64608F2FD386B
:1005B00073EB050002D308F1010801E092185B41DA
:1005C000B8F1000F03DA00200146BDE8F08D0020ED
:1005D0004FF48011064684460EE0171B73EB0507A7
:1005E00005D3121B63EB050306434CEA010C4908D3
:1005F0004FEA300092185B4150EA0107EDD152EA10
:10060000030012D082EA040083EA0501084305D002
:10061000101BAB4106D20122002306E000224FF05E
:10062000004302E06FF0010253101AEB06004CEB9E
:10063000085110EB0A0041EB0B01BDE8F04D00F052
:10064000E3B8C10F80EAE0700844CA07962300218E
:1006500000F0ACB896230022114600F0A7B80EB502
:10066000C10F80EAE0700844CA07002140F233431A
:100670008DE80E000A460B4600F0D5F803B000BD29
:1006800000F0004220F00040C10DC0F3160040F41D
:1006900000007F2901DA00207047962903DCC1F1B0
:1006A0009601C84001E096398840002AF4D04042C3
:1006B000704720F00040C10DC0F3160040F4000068
:1006C0007F2901DA00207047962903DCC1F19601E9
:1006D000C840704796398840704700F0004230F0BB
:1006E00000400AD0C10D01F56071C0F3160042EA66
:1006F0000151C2084007114370470020014670476E
:1007000001F0004330B421F0004150EA010206D06C
:100710000A0DA2F56072C1F31301002A02DC30BC9D
:1007200000207047440F44EAC104C100E01830BC07
:1007300000EBC25000F031B82DE9F05F0546002013
:1007400092469B4688460646814640241BE0284642
:10075000414647462246FFF764FD53465A46C01AB3
:10076000914110D311461846224600F07BF92D1A0C
:1007700067EB01084F4622460120002100F072F984
:1007800017EB00094E41201EA4F10104DFDC4846AE
:1007900031462A464346BDE8F09F0029A8BF70476E
:1007A000401C490008BF20F00100704710B4B0FAA7
:1007B00080FC00FA0CF050EA010404BF10BC704742
:1007C00049B1CCF1200421FA04F411FA0CF118BF5C
:1007D000012121430843A3EB0C01CB1D4FEA00612B
:1007E0004FEA102042BF002010BC704700EBC350FE
:1007F00010440029A4BF10BC7047401C490008BF2A
:1008000020F0010010BC704710B5141E73F10004F5
:1008100008DA401C41F1000192185B411A4301D1F2
:1008200020F0010010BD2DE9F04D92469B4611B11C
:10083000B1FA81F202E0B0FA80F22032904600F084
:1008400011F904460F4640EA0A0041EA0B015346FB
:100850005A46084313D0114653EA010019D0C8F193
:1008600040025046FFF7DDFC05460E46504659460D
:10087000424600F0F7F8084305D0012004E0204686
:100880003946BDE8F08D0020054346EAE0762C436A
:1008900037430A986305E40AA0EB08000022FD0A2A
:1008A00044EA47540A3002D500200146E9E7010531
:1008B00010196941DDE9084500196941BDE8F04DAD
:1008C000A2E72DE9FE4F804681EA0300C00F0C46E7
:1008D000009021F0004123F00045B8EB0200A9414F
:1008E00005D24046214690461C460B46024623F060
:1008F0000040104347D0270DC7F30A00C3F30A5145
:100900000290401A019040286BDAC3F3130040F4C0
:10091000801B0098924620B10023D2EB030A63EBC0
:100920000B0B01985946C0F14002504600F09AF86E
:1009300006460D4650465946019A00F0A2F810EBC3
:1009400008006141002487EA115284EAE7731A43E0
:1009500040D0009A62B3019A012A4FEA075215DC8F
:10096000001B61EB02014FF0004202EA0752CDE9A1
:100970000042001C41F5801132462B46FFF753FF21
:1009800003B0BDE8F08F40462146F9E7001B61EB5C
:100990000201001C41F5801300185B412018A2F5EC
:1009A000001747EB030140EAD570B6196D4111E01D
:1009B0006D084FEA360645EAC0754FEA0752001B3C
:1009C00061EB0201001C41F5801149084FEA30003B
:1009D0000019514132462B4603B0BDE8F04FFFF7F6
:1009E00013BF0098012240000023D0EB020263EB0A
:1009F000E073009821464FEAE074B8EB000061EB29
:100A00000401E9E783F000435BE781F0004158E728
:100A100030B5041E71F1000404DB4FF00044404285
:100A200064EB0101141E73F1000405DB1C464FF05A
:100A30000043524263EB04038B4208BF824230BD45
:100A4000064C074D06E0E06840F0010394E807001B
:100A500098471034AC42F6D3FFF74CFB34B800088B
:100A600054B80008202A04DB203A00FA02F10020E2
:100A700070479140C2F1200320FA03F319439040DC
:100A80007047202A06DBCB17203A41FA02F043EAEE
:100A9000E07306E041FA02F3D040C2F12002914037
:100AA00008431946704770B521F0004303430CD04A
:100AB000C1F30A550024D5EB040564EB0403D617F3
:100AC000AD1AB34102DB0020014670BD201841EB96
:100AD000025170BD70B58C1810F8015B15F007035A
:100AE00001D110F8013B2A1106D110F8012B03E0C7
:100AF00010F8016B01F8016B5B1EF9D12B0705D4CF
:100B00000023521E0DD401F8013BFAE710F8013B17
:100B1000CB1A921C03E013F8015B01F8015B521E33
:100B2000F9D5A142D8D3002070BD000070B50B4AA2
:100B300080F0004581F000401146FFF725FC084990
:100B4000FFF754FC044607482946FFF71DFC2146E1
:100B5000FFF714FCBDE87040FFF792BD0000F042C3
:100B60000000C8420000C8C3FEE7000038B50020FE
:100B70008DF800006B4601227521682005F048FDC4
:100B80009DF80000682808D05CA004F095FA882140
:100B90005DA004F091FA5EA0A7E067A004F08CFAD3
:100BA0008C2159A004F088FA66A004F085FA6FA0A1
:100BB00004F082FA06F046FB00286FD1782006F098
:100BC000B7FF60B95CA004F077FA91214EA004F061
:100BD00073FA67A004F070FA64A004F06DFA78204C
:100BE00006F062FA60B954A004F066FA952146A0B6
:100BF00004F062FA67A004F05FFA5CA004F05CFA0B
:100C0000C82006F055FF60B94BA004F055FA9921B1
:100C10003DA004F051FA69A004F04EFA53A004F08C
:100C20004BFA04F0EDFF60B943A004F045FA9D21B2
:100C300035A004F041FA6BA004F03EFA4BA004F09A
:100C40003BFA7548044605F085FD0546E01C05F0B5
:100C500081FD45EAC005A01D05F07CFD45EA801038
:100C600080B205F0DBF860B933A004F025FAA121C9
:100C700025A004F021FA69A004F01EFA3BA004F0BC
:100C80001BFA40F2731004F093FE70B92AA004F02E
:100C900013FAA7211CA004F00FFA00E02CE069A0D1
:100CA00004F00AFA31A004F007FAC82005F01EF893
:100CB00060B921A004F000FAAB2113A004F0FCF904
:100CC0006AA004F0F9F929A004F0F6F907F0CAFEC9
:100CD000012006F013FE00280ED117A004F0ECF955
:100CE000B12109A004F0E8F969A004F0E5F9BDE834
:100CF00038401EA004F0E0B938BD00005B452F6D00
:100D00007075363035305D003A25642000000000F3
:100D10006D707536303530206765742077726F6E70
:100D20006720646576696365206964202E2E2E2E07
:100D30002E2E0D0A000000005B442F6D70753630BA
:100D400035305D006D707536303530206765742044
:100D500072696768742064657669636520696420D8
:100D60002E2E2E2E2E2E0D0A000000000A0000004E
:100D70006D70755F7365745F73656E736F722063FA
:100D80006F6D706C657465202E2E2E2E2E2E0D0A22
:100D9000000000006D70755F636F6E666967757245
:100DA000655F6669666F20636F6D706C6574652042
:100DB0002E2E2E2E2E2E0D0A000000006D70755F57
:100DC0007365745F73616D706C655F7261746520CB
:100DD000636F6D706C657465202E2E2E2E2E2E0D79
:100DE0000A000000646D705F6C6F61645F6D6F740A
:100DF000696F6E5F6472697665725F6669726D773E
:100E000061726520636F6D706C657465202E2E2E87
:100E10002E2E2E0D0A00000098000020646D705FD9
:100E20007365745F6F7269656E746174696F6E204B
:100E3000636F6D706C657465202E2E2E2E2E2E0D18
:100E40000A000000646D705F656E61626C655F66CC
:100E500065617475726520636F6D706C6574652073
:100E60002E2E2E2E2E2E0D0A00000000646D705FB7
:100E70007365745F6669666F5F7261746520636F26
:100E80006D706C657465202E2E2E2E2E2E0D0A0090
:100E90006D70755F7365745F646D705F737461749A
:100EA0006520636F6D706C657465202E2E2E2E2E5E
:100EB0002E0D0A0070474FF4805000F0EDB872B666
:100EC000FEE700002DE9FF5F9B469246FFF7B9FB66
:100ED0001A4C2146FFF758FA6FF001052946FFF733
:100EE000C3FA174E3146FFF781FA164F3946FFF71E
:100EF0007DFADFF854804146FFF746FADFF84C9060
:100F00004946FFF741FACAF800000198FFF799FB3C
:100F10002146FFF739FA2946FFF7A6FA3146FFF7CF
:100F200065FA3946FFF762FA4146FFF72DFA49465E
:100F3000FFF72AFACBF80000BDE8FF9F0000484306
:100F40000000F04100005041560E4940000086422A
:100F500010B590F821100022022905D004218163E8
:100F600080F82020012010BD01680B6823F00E03DB
:100F70000B6001680B6823F001030B6090F84030B0
:100F8000C46B012101FA03F3636080F8211080F83B
:100F90002020104610BD000010B590F8211000244C
:100FA000022903D00421816301243DE001680A681D
:100FB00022F00E020A6001680A6822F001020A604B
:100FC0001A4A0168914201D1012121E0174A1432E5
:100FD000914201D110211BE0144A2832914201D1E3
:100FE000891515E0114A3C32914201D189140FE074
:100FF0000E4A5032914202D14FF4803108E00B4A40
:101000006432914202D14FF4801101E04FF08071BF
:10101000064A083A5160012180F82110002180F829
:101020002010416B01B18847204610BD08000240E6
:1010300090F821007047000070B5044600F03AF9BE
:101040000546601C02D004480078044400F032F9E0
:10105000401BA042FAD370BD0400002008B5002157
:101060000091B0F5805F11D10948006900280DD0CA
:10107000694608F0B6FA0098002807D005494FF0F5
:1010800080500860BFF34F8FBFF36F8F08BD000023
:10109000D000002004ED00E0044910B50A680242C7
:1010A00002D00860FFF7DAFF10BD00001404014011
:1010B0002DE9F84FDFF8B8910024A9F1040B23467D
:1010C0000F2709F1040AABF1040EC9E00125A54080
:1010D0002A40AA427DD1674ED1F804C0ACEB060885
:1010E000B44532D014DCBCF1030F3AD009DCBCF1BA
:1010F000000F2AD0BCF1010F1CD0BCF1020F31D17E
:101100001DE0BCF1110F17D0BCF1120F2AD119E06C
:10111000B8F5881F19D006DCB8F5803F15D0B8F5B2
:10112000801F1FD111E0B8F5001F0ED0B8F5041FC5
:1011300018D10AE0CB6815E0CB681B1D12E0CB6824
:1011400008330FE0CB680C330CE08B682BB1012B1C
:101150004FF0080303D0456104E0042302E0056179
:1011600000E00023FF2A01D8064601E000F1040652
:101170004FEA840501D9A5F12005D6F8008007FAC9
:1011800005FC28EA0C0803FA05F548EA0508C6F844
:1011900000804D68ED0062D5374DAE6946F001061E
:1011A000AE61AD6924F0030605F001050095334DED
:1011B00006EB050CDCF80850A607360F07FA06F810
:1011C00025EA0805DFF8B880404503D14FF0000854
:1011D00017E044E0DFF8AC80404502D14FF0010851
:1011E0000FE0DFF8A480404502D14FF0020808E08C
:1011F000DFF89880404502D14FF0030801E04FF03E
:10120000040808FA06F848EA0508CCF808804D6892
:10121000D9F80060ED024D4601D5164300E0964333
:101220002E604D68DAF80060AD02554601D51643D0
:1012300000E096432E604D68DBF80060AD035D462C
:1012400001D5164300E096432E604D68DEF800603D
:10125000ED03754601D5164300E096432E60641CED
:101260000D682A46E5407FF431AFBDE8F88F0000F5
:10127000080401400000111000100240000001406D
:1012800000080140000C0140001001400014014022
:101290008068084000D001207047C26821EA02033C
:1012A0000A4043EA0241016170470AB10161704797
:1012B0000904FBE701488068704700000400002033
:1012C000704770472DE9F041016804464A694E684D
:1012D00090F83E000025D743FA050BD4F243D2051F
:1012E00008D46FF4807201254A6121680A6842F4CB
:1012F00000420A60B90508D4F143C90505D4226843
:101300006FF4007145F002055161790525D4F14370
:10131000C90522D4638D94F83D10226B202808D192
:101320003BB9212910D029290ED0282901D1212A01
:101330000AD022686FF48061516145F004051028DD
:1013400006D0402804D008E0204602F0B7F904E0B7
:101350002068016841F400710160380508D4F04349
:10136000C00505D421686FF4006045F008054861A8
:10137000002D07D0206C284320642046BDE8F041B2
:1013800001F018BDBDE8F0812DE9F04702680021A9
:101390005368C66A90F83E4090F83D50102C12D029
:1013A000402C10D0046C002C7DD05469E443A60777
:1013B0007AD4DE43B60577D4036C03B19169BDE8F6
:1013C000F04702F057B9976951694FF42A0CC943A5
:1013D0005FEAC1784FF02A4904D066452AD04E45CD
:1013E00028D010E0DE43B6050DD4C16A614501D1B5
:1013F000012103E0C16A494501D10821C162BDE86C
:10140000F04701F0CBBF0E0716D4DE43B60513D468
:10141000416CC9B21161416B09B1896A29B9816B0B
:10142000002907D0896A002904D00068416841F486
:1014300000614160BDE8F0878E0706D4DE43B60543
:1014400003D4BDE8F04701F0FDBEFE4352687607C5
:101450004FEA02521DD4002AECDB0A0608D4DA4314
:10146000520505D4490705D5BDE8F04701F08EBE09
:101470004907DFD4D9438905DCD4212D05D0402C80
:10148000D8D1BDE8F04701F0CFBFBDE8F04701F08B
:101490003BBE002ACEDB4A060BD4DA43520508D401
:1014A000490708D501E00DE00EE0BDE8F04701F086
:1014B000B1BD4907BED4D9438905BBD4BDE8F047C7
:1014C00001F03BBD916970E7E10606D4D943890577
:1014D00003D4BDE8F04702F039B92821212D27D0E7
:1014E000292D25D0650655D4DD436D0552D46407FA
:1014F00052D590F83D30448D002C9BD01269446A3F
:101500002270426A521C4262428D521E4285428DB6
:10151000002A8FD12A2B8DD10268536823F480636F
:1015200053602222026380F83D1000F01FFB81E728
:10153000250623D4DD436D0520D4640720D590F81B
:101540003D30448D002CF2D0446A24781461426A04
:10155000521C4262428D521E4285428D002AE6D1C3
:10156000292BE4D10268536823F48063536021225D
:10157000026380F83D1000F0FAFA5BE76107D6D409
:10158000D9438905D3D4418D0029D0D0416A097847
:1015900011610AE06107CAD4D9438905C7D4418DD6
:1015A0000029C4D01169426A1170416A491C416224
:1015B000418D491E41853DE77047000070B504002C
:1015C00025D094F83D00002520B984F83C502046F1
:1015D00000F084FA242084F83D002068016821F09E
:1015E000010101602068016841F400410160206848
:1015F000016821F40041016000F03AFC4D4A616845
:10160000914201D84C4900E04C49884201D2012066
:1016100070BD4B492368B0FBF1F15E6826F03F06D0
:101620000E435E606368934206D94FF49673594344
:101630004FF47A73B1FBF3F12368491C1E6A26F05C
:101640003F06314319626168914210D84900401E3B
:10165000B0FBF1F2521CC2F30B02042A01D20420A7
:1016600022E0B0FBF1F0401CC0F30B001CE0A268CC
:10167000F2B301EBC10303EB0116431EB3FBF6F318
:101680005B1C43F480431B0549D092B301EBC102BC
:1016900002EB0111401EB0FBF1F0401CC0F30B0047
:1016A00040F4804040F400402168CA694CF6FF7362
:1016B0009A431043C861D4E90710014320680268C7
:1016C00022F0C00211430160D4E903010143206804
:1016D000826848F2FF339A4311438160D4E90501DF
:1016E00008432168CA6822F0FF021043C86001E085
:1016F0000EE016E02068016841F0010101602564F8
:10170000202084F83D00256384F83E50002070BD01
:1017100001EB4106431EB3FBF6F35B1CB3E701206C
:10172000C2E701EB4101401EB0FBF1F0401CC0F3E9
:101730000B00B7E7A086010080841E0000093D0071
:1017400040420F0070477047704770477047000075
:101750002DE9FF4F83B00025DDE910799A469346C5
:101760000446DDF848800095FFF7A4FD064694F88E
:101770003D0020287CD1192301228849204600966B
:1017800002F0BEF80028F5D194F83C0001286FD093
:10179000012084F83C0020680168C90703D1016872
:1017A00041F0010101602068016821F400610160DD
:1017B000222084F83D00402084F83E0025646762C2
:1017C000A4F82A90608D20857548E062CDE90086F6
:1017D00053465A462046049901F07AFE00287CD1EF
:1017E000208DDFF8C091202768B1012814D002288D
:1017F000206801681ED041F4806101602068416961
:1018000080690090BCE020684169816900910168AD
:1018100041F400710160B3E02068016821F4806147
:10182000016072B62068416981690091016841F4E4
:1018300000710AE041F40061016072B620684169FC
:1018400081690091016821F48061016062B697E0CE
:10185000032865D801280CD0022843464FF0000227
:101860004946204600960BD002F04AF8A8BB0CE08F
:1018700091E032464146204602F0E8F868BB72E04B
:1018800002F03EF848BB72B633E02068016821F4EC
:101890008061016072B620680069616A0870606AE0
:1018A000401C6062208D401E2085608D401E60853A
:1018B0003D4846F2A8110068B0FBF1F0C0EBC00053
:1018C00000EB80000090401E009007D02068406927
:1018D000C04340070DD50098F5E727E044F8305F96
:1018E0006773A573206940F02000206162B62573FC
:1018F0001CE02068016841F4007101602068006903
:10190000616A0870606A401C6062218D491E2185F1
:10191000618D491E618562B621680969017026E002
:1019200032464146204602F091F818B1012007B036
:10193000BDE8F08F20680069616A0870606A401C29
:101940006062208D401E81B22185608D401E6085C1
:1019500020684269D243520712D4032903D1016897
:1019600021F48061016020680069616A0870606A22
:10197000401C6062208D401E2085608D401E608569
:10198000208D00287FF464AF84F83D7084F83E50C9
:1019900084F83C50CBE70220C9E7000002001000A9
:1019A0000000FFFF04000100100000202DE9FF4FA0
:1019B00083B09A46DDE9119793460446DDF84080EE
:1019C000FFF778FC054694F83D0020287FD11923C5
:1019D000012240492046009501F092FF002876D16F
:1019E00094F83C00012872D0012084F83C00206863
:1019F0000168C90703D1016841F001010160206855
:101A0000016821F400610160212084F83D0040203C
:101A100084F83E0000262664C4F82480A4F82A90A6
:101A2000608D20852C48E062CDE9007553465A460A
:101A30002046049901F0CAFD70B930E02A463946C3
:101A4000204602F03BF858B1206C042804D12068ED
:101A5000016841F400710160012007B0BDE8F08F1A
:101A6000606A216800780861606A401C6062218DAC
:101A7000491E89B22185628D521E62852268536992
:101A8000DB435B070BD469B100781061606A401CCE
:101A90006062208D401E2085608D401E6085208DF7
:101AA0000028CBD12A463946204601F0FDFE002809
:101AB000CAD154F83D0B016841F400710160202047
:101AC00004F81E09E67766770020C6E7FFE70220E4
:101AD000C3E70000020010000000FFFF10B586B051
:101AE0000021009101910291039100681B498842F5
:101AF00032D11B4CA06940F00800A061A069694682
:101B000000F0080004904FF4407000901220019003
:101B1000032003901348FFF7CBFA1348416841F0C4
:101B2000E06141F002014160E06940F40010E061D1
:101B3000E069002200F40010049005211F2000F04D
:101B4000AFF81F2000F09EF800220521202000F0B1
:101B5000A7F8202000F096F806B010BD0054004011
:101B600000100240000C0140000001407047704727
:101B700002488168027811448160704704000020A7
:101B8000074810B5016841F010010160032000F022
:101B9000A7F80F2000F006F800F050F8002010BD64
:101BA0000020024030B505461F4887B0C16941F0AA
:101BB0000201C161C06906A900F00200009001A8FD
:101BC00000F036F90498B0B100F052F9400017491E
:101BD000174AB0FBF1F11748491E0260416040F21C
:101BE000E7320021C0E903218160816100F076FBCA
:101BF000040003D015E000F03BF9E8E70D4800F0E1
:101C00009BFB04000DD11D2000F03CF8102D07D2E5
:101C1000002229461D2000F043F80748056000E037
:101C2000012407B0204630BD0010024040420F00A2
:101C300000040040F4020020080000200F4808B50E
:101C4000816941F001018161816901F00101009127
:101C5000C16941F08051C161C069002200F080502B
:101C600000900F21901E00F01BF80548416821F0FC
:101C7000E06141F00071416008BD000000100240C9
:101C800000000140002809DB00F01F020121914003
:101C90004009800000F1E020C0F80011704700000A
:101CA000F0B40E4B1B680C46C3F30223C3F10705C7
:101CB000042D00D90425191D072901D2002300E0B5
:101CC000DB1E012606FA05F1491E214099409E407F
:101CD000761E16403143F0BC03F012BA0CED00E062
:101CE000064900F0070208684FF6FF03184040EA73
:101CF0000220034A10430860704700000CED00E02A
:101D00000000FA052DE9F0470F46050061D0434E6B
:101D1000306800F00700B84209D2306820F00700B0
:101D200038433060306800F00700B84251D128686D
:101D30003B4C810712D5400703D5606840F4E06052
:101D400060602878000703D5606840F460506060E8
:101D50006068A96820F0F000084360602878C00738
:101D600028D06868012810D02168022810D089077F
:101D700000292EDA616821F0030101436160FFF759
:101D800099FA804641F288390DE021688903EFE72E
:101D90008901EDE7FFF78EFAA0EB0801494502D96A
:101DA0000320BDE8F0876068696800F00C00B0EBC4
:101DB000810FEFD1306800F00700B8420BD93068CE
:101DC00020F0070038433060306800F00700B84268
:101DD00001D00120E5E72878400705D56068E9686B
:101DE00020F4E060084360602878000706D560684A
:101DF000296920F4605040EAC100606000F058F8A2
:101E00006168084AC1F30311515CC8400649086083
:101E100006480068FFF7C6FE0020C2E70020024027
:101E2000001002407F9E00081000002008000020E3
:101E30000F2202600C4A536803F0030343605368A7
:101E400003F0F0038360536803F4E063C3605268F7
:101E50004FF4E06303EAD20202610448006800F034
:101E60000700086070470000001002400020024098
:101E70000448054900684968044AC1F30221515CDD
:101E8000C840704710000020001002408F9E0008DC
:101E90000448054900684968044AC1F3C221515CFD
:101EA000C840704710000020001002408F9E0008BC
:101EB0000E4A51680E4801F00C03042B11D0082B78
:101EC0000FD10C48C1F38343C903C05C0AD55168E4
:101ED000084AC1F34041921E515C054A5043B0FB91
:101EE000F1F0704704494843704700000010024079
:101EF00000127A006F9E000800093D002DE9F84F9E
:101F0000040070D02078C04DC00749D06868C0F385
:101F10008100012807D06868C0F38100022809D138
:101F20006868C00306D52868800339D56068002832
:101F3000E7D035E06068B0F5803F0BD010B1B0F568
:101F4000A02F11D0286820F480302860286820F461
:101F5000802002E0286840F480302860606890B1FA
:101F6000FFF7A8F906460AE0286840F480202860B8
:101F7000F0E700BFFFF79EF9801B642873D828683C
:101F80008003F7D50CE0FFF795F9064605E000BFA2
:101F9000FFF790F9801B6428F0D828688003F7D4F5
:101FA00020789A4E80074FF001094FF0000839D58C
:101FB000686810F00C0F07D06868C0F38100022831
:101FC00009D16868C00306D42868800714D5206941
:101FD000012808D110E02069B0B1C6F80090FFF7E1
:101FE00069F9074605E00AE1FFF764F9C01B02281A
:101FF000C4D828688007F7D52868616920F0F80000
:1020000040EAC10028600DE0C6F80080FFF752F9F1
:10201000074604E0FFF74EF9C01B022823D82868C2
:102020008007F7D4207800072CD57948A169D9B169
:10203000C0F80090FFF73EF9074604E0FFF73AF9D1
:10204000C01B02280FD8686A8007F7D571484FF483
:10205000FA510068B0FBF1F0009000BF0098411EFB
:102060000091FAD20EE080E0C0F80080FFF722F97C
:10207000074604E0FFF71EF9C01B022875D8686AFE
:102080008007F7D42078400760D5E8690027C000B2
:1020900008D4E86940F08050E861E869012700F061
:1020A000805000905C480168C90513D401688346DC
:1020B00041F480710160FFF7FDF8824606E000BF41
:1020C000FFF7F8F8A0EB0A0064284ED8DBF8000010
:1020D000C005F5D5E06801280AD008B1052813D05D
:1020E000286A20F001002862286A20F0040002E03B
:1020F000286A40F001002862E06841F2883B98B10C
:10210000FFF7D8F882460BE0286A40F00400286206
:10211000EEE700BFFFF7CEF8A0EB0A0159455AD809
:10212000286A8007F6D50CE0FFF7C4F8824605E080
:10213000FFF7C0F8A0EB0A0159454CD8286A800780
:10214000F6D41FB1E86920F08050E861E06988B3F7
:102150006968C1F38101022944D00228C6F8608071
:1021600004D0FFF7A7F8044638E034E0FFF7A2F800
:10217000074604E0FFF79EF8C01B02282BD828680A
:102180008001F7D4206AB0F5803F05D16868A16866
:1021900020F4003008436860D4E908010843696806
:1021A00021F4741108436860C6F86090FFF782F864
:1021B000044606E025E000BFFFF77CF8001B02287C
:1021C00009D828688001F7D51BE000BFFFF772F837
:1021D000001B022802D90320BDE8F88F286880017F
:1021E000F4D40EE00128F7D06868226A00F4803148
:1021F000914204D1616A00F47010884201D001203C
:10220000EAE70020E8E70000001002400000424238
:102210008004424210000020007000407047704768
:1022200010B590F83C20012A22D0012280F83C20F1
:10223000CA688C6822F4407222434C6822F480629F
:1022400022430C6822F4006222430C6922F480527B
:1022500022434C6922F400522243C969002322F42C
:1022600080420A4301684A6480F83C30002010BD77
:10227000022010BD70B590F83C20012A26D0012420
:1022800080F83C40022280F83D2003685A689D682F
:1022900022F070060A6832435A600D4B02689A4277
:1022A00008D0B2F1804F05D00A4B9A4202D00A4BB7
:1022B0009A4204D1496825F080031943916080F85F
:1022C0003D40002180F83C10084670BD022070BDE2
:1022D000002C0140000400400008004010B504003C
:1022E00003D094F83D0010B107E0012010BD00209C
:1022F00084F83C00204600F01EF8022084F83D00DF
:10230000211D206802F0BEFC012084F8460084F8FC
:102310003E0084F83F0084F8400084F8410084F8CF
:10232000420084F8430084F8440084F8450084F8AF
:102330003D00002010BD704790F83D10012901D0EC
:1023400001207047022180F83D100168CA6842F000
:102350000102CA6000680B49884208D0B0F1804F82
:1023600005D00949884202D00849884204D18168D1
:1023700001F00701062903D0016841F00101016065
:1023800000207047002C014000040040000800407D
:102390002DE9F0410D46040003D094F83D0018B13A
:1023A00008E00120BDE8F081002084F83C002046D0
:1023B00000F040F8022084F83D002068816844F273
:1023C000070291438160211D206802F05BFC2268B6
:1023D00090689169166A2B68AF69034340F2033035
:1023E000814341EA0721A868EF6908434FF6FC41A1
:1023F0008843E96840EA0720014328692F6A000101
:1024000040EA0730084369686D6926F0220646EA0B
:102410000515294393602268906154F8460B0162C8
:10242000012004F81F09E0752076E0762077A0757A
:102430000020B7E700B585B000210091019102911D
:10244000039101681A48B1F1804F1BD0194A91429B
:1024500016D1C16941F00401C161C16901F00401F3
:102460000491816941F0080181618069694600F049
:1024700008000490C02000900F4800BFFEF718FE2F
:1024800005B000BDC16941F00101C161C16901F040
:1024900001010491816941F004018161806969460B
:1024A00000F004000490032000900448E6E70000D8
:1024B0000010024000080040000C014000080140EC
:1024C00070B590F83E60044690F83F5090F8423066
:1024D00090F84320022021B104290ED0012E1BD1F7
:1024E00014E0012E18D1012B16D184F83E0084F897
:1024F000420001220021206820E0012D0CD1012A98
:102500000AD184F83F0084F8430014E0012D03D180
:10251000012B01D1012A01D0012070BD84F83E00B9
:1025200084F83F0084F8420084F84300012200212F
:10253000206802F0E3FB01220421206802F0DEFBA8
:102540002068016841F001010160002070BD704702
:102550002DE9F04104460068C66805694FF00007A0
:10256000A90713D5B10711D5F91E01610120207704
:10257000206880698007204602D0FFF7E8FF04E06A
:1025800000F0A4F8204600F049F92777680716D52F
:10259000700714D521686FF00400086102202077CD
:1025A0002068806910F4407F204602D0FFF7CFFFFB
:1025B00004E000F08BF8204600F030F92777280778
:1025C00015D5300713D521686FF008000861042085
:1025D00020772068C0698007204602D0FFF7B7FF48
:1025E00004E000F073F8204600F018F92777E806B9
:1025F00016D5F00614D521686FF010000861082088
:1026000020772068C06910F4407F204602D0FFF791
:102610009EFF04E000F05AF8204600F0FFF827770C
:10262000E80708D0F00706D021686FF001000861C4
:10263000204600F043F9280608D5300606D5216863
:102640006FF0800008612046FFF7E8FD680608D5B6
:10265000700606D521686FF040000861204600F042
:1026600037F9A8060AD5B00608D521686FF0200012
:1026700008612046BDE8F041FFF7D1BDBDE8F0811B
:1026800000B585B00021009101910291039100688D
:102690000B49884212D10B48816941F004018161E4
:1026A0008069694600F0040004904FF410600090C7
:1026B0000220019003900448FEF7FAFC05B000BD2B
:1026C000002C01400010024000080140704770B526
:1026D000044690F83C0000260D4601280FD001204A
:1026E00084F83C006AB1042A1DD0082A2FD00C2A95
:1026F0003FD00126002084F83C00304670BD022007
:1027000070BD206802F008FB2068816941F0080173
:1027100081612068816921F00401816120688169FB
:102720002A69114311E0206802F01EFB20688169CC
:1027300041F4006181612068816921F480618161D7
:10274000206881692A6941EA02218161D2E7206813
:1027500002F036FB2068C16941F00801C1612068C0
:10276000C16921F00401C1612068C1692A6911436E
:1027700011E0206802F050FB2068C16941F400615B
:10278000C1612068C16921F48061C1612068C169AB
:102790002A6941EA0221C161ACE710B5040003D007
:1027A00094F83D0010B107E0012010BD002084F82E
:1027B0003C00204600F01EF8022084F83D00211D58
:1027C000206802F05FFA012084F8460084F83E0099
:1027D00084F83F0084F8400084F8410084F8420007
:1027E00084F8430084F8440084F8450084F83D00F0
:1027F000002010BD08B500680649884208D1064887
:10280000816941F400618161806900F40060009099
:1028100008BD0000002C014000100240704700007D
:1028200010B50446022249B104290ED0082913D05C
:1028300094F84100012816D0012010BD94F83E0004
:102840000128F9D184F83E200FE094F83F000128D8
:10285000F2D184F83F2008E094F840000128EBD141
:1028600084F8402001E084F841200122206802F031
:1028700045FA0F492068884203D1426C42F4004275
:1028800042642068884208D0B0F1804F05D00949E1
:10289000884202D00849884204D1816801F00701CA
:1028A000062903D0016841F001010160002010BD3C
:1028B000002C01400004004000080040006803496B
:1028C000884201D1FFF754B970470000000400406E
:1028D0007047704770470000F8B501680446086803
:1028E000CA684B6910F00F0F4FF0000559D003F084
:1028F000010602F49077374365D0C10705D0D105B2
:1029000003D5616C41F001016164410705D5D90728
:1029100003D0616C41F002016164810705D5D907DC
:1029200003D0616C41F004016164010707D502F036
:102930002001314303D0616C41F008016164616C96
:1029400000293AD0800604D5900602D5204602F030
:10295000B4FA20684069616CC0F38010090700D4A4
:1029600060B3204602F082FA20684069400621D513
:102970002068143050E8001F21F0400140E80012A8
:10298000002AF5D1E06BA8B16D494163E06BFEF719
:1029900003FB002811D0E06B416B01B0BDE8F040B3
:1029A000084783060FD593060DD52046BDE8F840AD
:1029B00002F083BA2046FFF78DFFF8BD2046FFF7EF
:1029C00089FF6564F8BD266B2023012E7CD1C606E5
:1029D0007AD5D60678D508684868009048694FF0DF
:1029E0000206400640D5E16B086840680004000C10
:1029F000E8D0A28D8242E5D9E085886920282DD0D3
:102A000020680C3050E8001F21F4807140E800126B
:102A1000002AF5D12068143050E8001F21F0010190
:102A200040E80012002AF5D12068143050E8001F59
:102A300021F0400140E80012002AF5D184F842302C
:102A4000256320680C3050E8001F21F0100140E899
:102A50000012002AF5D1E06BFEF77AFA6663A08DCA
:102A6000E18D401A81B22AE0A08DE18D401A81B239
:102A7000E08D0028A6D00029A4D022680C3252E8AC
:102A8000000F20F4907042E80007002FF5D1206875
:102A9000143050E8002F22F0010240E80027002FF8
:102AA000F5D184F84230256320680C3050E8002FBF
:102AB00022F0100240E80023002BF5D16663204687
:102AC000FFF707FFF8BDFFE705062BD5150629D54B
:102AD00094F841002128F5D1A068B0F5805F01D1BC
:102AE0002069B0B1206A411C2162216800784860E9
:102AF000E08C401E0004000CE084E3D12068C16833
:102B000021F08001C1602068C16841F04001C160CE
:102B1000D8E7206A0088C0F308004860206A801C5B
:102B20002062E5E74006CDD55006CBD5CA682046E1
:102B300022F04002CA6084F8413000F0C6F8C1E7D4
:102B40005D4E000870B5040004D094F841000025E3
:102B500010B106E0012070BD84F84050204600F01E
:102B600023F8242084F841002068C16821F4005132
:102B7000C160204602F002FA2068016921F4904108
:102B800001612068416921F02A0141612068C16822
:102B900041F40051C1606564202084F8410084F84C
:102BA00042006563002070BD30B585B000240094FC
:102BB0000194029403940068184988422CD1184863
:102BC000816941F480418161816901F4804104910E
:102BD000816941F0040181618069124D00F00400B7
:102BE00004904FF4007000900220019003200390A5
:102BF00069462846FEF75CFA2815CDE900046946C7
:102C000028460294FEF754FA002205212520FFF7FA
:102C100047F82520FFF736F805B030BD00380140F1
:102C2000001002400008014070472DE9F8430446B7
:102C300090F84100984616460D46202802D0022002
:102C4000BDE8F88385B17EB100206064212084F85E
:102C50004100FEF72FFBA6848146E684A06820276A
:102C6000B0F5805F02D003E00120E9E7206910B1F0
:102C70002E4600250EE000260CE08021204602F0C2
:102C8000D9F9A8B9C6B116F8010B21684860E08CE3
:102C9000401EE084E08C4B464FF00002CDF80080EF
:102CA0000028EAD14FF04001204602F0C3F940B1BC
:102CB00084F841700320C3E735F8020BC0F3080025
:102CC000E3E784F841700020BAE77047FEE70000B0
:102CD0000148FEF7F7BA0000800100200148FEF726
:102CE00053BB00008001002038B5406A002190F8F5
:102CF0003D202B4B46F2A8141B68B3FBF4F3C3EB47
:102D0000C30303EB830300933BB15B1E0093036893
:102D10001B689B0505D5009BF6E7036C43F0200379
:102D20000364436B03B19962836B03B199620368D7
:102D30001C6824F480641C604185436B03B15963B3
:102D4000836B03B1596303681C6824F001041C60A1
:102D500090F83D402023602C0BD0282434EA020256
:102D60000FD080F83D3080F83E1000BFFEF724FC05
:102D700038BD80F83D3080F83E100164FEF7A0FABF
:102D800038BD0268136843F00103136002681368DA
:102D900043F480631360016380F83D40E6E7000080
:102DA0001000002000684169C943090601D40021D0
:102DB0000161704770B5044690F83D0094F83E10EC
:102DC000102901D0402906D1222804D121680A689F
:102DD00022F400620A60282131EA00024FF0000567
:102DE0004FF0200626D021684968090505D46028DF
:102DF00003D084F83D6084F83E5025632068416824
:102E0000090537D5416821F400614160606B90F895
:102E100021203C49012A11D04163606BFEF7BCF8C8
:102E200038B32068016821F00101016084F83D6039
:102E3000606B1CE0256384F83D10DFE7A06B416305
:102E4000A06BFEF7A9F8A0B120684169C943490603
:102E500005D40069616A0870606A401C606220687D
:102E6000016821F00101016084F83D60A06B416BB5
:102E7000884710E094F83D10602910D04169C9439B
:102E8000490605D40069616A0870606A401C606286
:102E90002046FEF791FB206CC1071CD115E084F899
:102EA0003D6025644169C943490605D40069616AEA
:102EB0000870606A401C60622068016821F00101AE
:102EC00001602046FEF7FCF9E5E7810703D44107DE
:102ED00001D4000704D52068416821F4E061416015
:102EE00094F83D00216C49070BD5282809D10648E4
:102EF000E062256384F83D6084F83E502046FEF78A
:102F000021FC70BDE92C00080000FFFF01684A6940
:102F1000D24352050FD46FF480624A61002140F819
:102F2000301F202242738173026942F00402026161
:102F30000173012070470020704710B5C26A438DAD
:102F40000168042B06D0438D032B08D0438D022B40
:102F50001DD012E04A6822F480624A600CE04B689F
:102F600023F480634B60042A06D0022A04D001684F
:102F70000A6822F480620A6001680969426A117075
:102F8000416A491C4162418D491E418510BD012A9B
:102F900034D0102A32D0042A34D0022A32D00B681E
:102FA00043F400730B6001680969436A1970416A50
:102FB000491C4162438D5B1E438503681B690B708E
:102FC000416A491C4162418D491E418501684B6837
:102FD00023F440734B60202180F83D1090F83E3080
:102FE0000021402B80F83E1010D0082A02D0202A61
:102FF00000D012210163FEF7A6FB10BD0B6823F47D
:103000008063CFE70B6843F48063CBE70163FEF78F
:103010009CFB10BD38B590F83D10222910D1C36A31
:10302000418D03290DD901680969426A1170416A0D
:10303000491C4162418D491E4185418D032906D0BD
:1030400038BDC26A022A02D0012906D029B100681F
:10305000416821F48061416038BD2A4A46F2A814D3
:1030600000211268B2FBF4F202EB820200920268C5
:103070002024009D6D1E009526D01568AD05F8D45E
:10308000156825F4806515600268556825F4E065CB
:10309000556002681269456A2A70426A521C42628F
:1030A000428D521E428580F83D4090F83E2080F8C7
:1030B0003E10402A21D0082B02D0202B00D0122114
:1030C0000163FEF740FB38BD036C43F0200303644B
:1030D000536823F4E063536002681269436A1A700C
:1030E000426A521C4262428D521E428580F83D4027
:1030F00080F83E10FEF760FA38BD0163FEF725FB4D
:1031000038BD00001000002010B5C26A90F83D10D4
:1031100021290BD1418D51B1416A026809781161B1
:10312000416A491C4162418D491E418510BD2023E1
:103130000021082A13D0202A11D012F5803F0ED08A
:103140000268546824F4E06454601122026380F839
:103150003E1080F83D3000BFFEF7F6FA10BD026861
:10316000546824F4E06454600268146844F4007401
:103170001460016380F83D3090F83E2080F83E10E6
:10318000402AE9D1FEF7E2FA10BD000010B590F830
:103190003D1090F83E30C26A048DB4B1212903D0AD
:1031A000402B11D122290FD1418DE1B390F83E106F
:1031B000402942D0416A026809781161416A491C7C
:1031C0004162418D491E418510BD2129E8D120234E
:1031D0000021082A13D0202A11D012F5803F0ED0EA
:1031E0000268546824F4E06454601122026380F899
:1031F0003E1080F83D3000BFFEF7A6FA10BD026811
:10320000546824F4E06454600268146844F4007460
:103210001460016380F83D3090F83E2080F83E1045
:10322000402AE9D100E002E0FEF790FA10BD006804
:10323000416821F48061416010BDBDE8104000F09C
:10324000F3B8000078B590F83E50C26A046B90F86D
:103250003D6000230168222E73D1066D0EB9402D0A
:103260006FD0056D1DB90569B5F5404F1BD0458D73
:1032700095B3468D484D012E20D0448D022C4DD063
:103280000C6844F480640C6001684C68240579D5AE
:10329000AA4273D0012A71D0082A6FD0102A6DD0AB
:1032A000202A6BD06EE04A698A6900920A6842F46B
:1032B00080720A60016D491C016578BDAA4214D173
:1032C0000A6822F480620A6001684A68120504D51F
:1032D0000A6822F4806217E0FFE74A698A6900926F
:1032E0000A6842F400720A6050E0082A10D0202ACE
:1032F0000ED0122C0AD0042A03D0022A01D0102AA0
:10330000E6D10A6842F480620A603BE0012ADFD01D
:103310000A6822F480620A600168DEE7042A11D09C
:10332000022A0FD0102A0DD00C6844F400640C60FF
:1033300001684C698C6900940C6824F480640C600A
:1033400008E025E00C6844F480640C6001684C6976
:103350008969009101684C68240517D5AA4207D0F5
:10336000012A05D0082A03D0102A01D0202A0DD125
:103370004A6842F480524A6008E0FFE74A6842F433
:1033800080524A6001684A6989690091036578BD85
:1033900048698869009078BD0000FFFF90F83E10F2
:1033A000402910D00169B1F5804F19D0016DA9B342
:1033B000016D012910D1416C5FF0F10201F44071FF
:1033C00042EAD11106E0016D0029416C05D0C9B275
:1033D00041F0010100680161704701F0FE01F9E769
:1033E00090F83D102129416C09D0C9B241F001018A
:1033F00002681161416B29B1896A49B902E001F0A3
:10340000FE01F5E7816B0029E6D0896A0029E3D047
:103410000068416841F4006141607047FFE7416C1A
:10342000F02201F44071CBE710B590F83D10026D29
:103430004AB1026D012A14D0026D022A16D0BDE8ED
:103440001040FFF7AFBCC16C0129816C02D0C1F301
:10345000072108E00268C9B21161016D891C01658C
:1034600010BD816CC9B20268116123E022291CD011
:10347000428D0AB1212920D0428D002AF0D1212984
:10348000EED101684A6822F4E0624A6001680A6885
:1034900042F400720A6000210163202280F83D207E
:1034A00080F83E10FEF752F910BD01680A6842F438
:1034B00080720A60016D491CD1E7416A026809788F
:1034C0001161416A491C4162418D491E418510BD0F
:1034D0002DE9F84F0446006889460B9D016898461F
:1034E000174641F4806101602068016841F48071F1
:1034F000016000954FF0011B0022594620460A9BAF
:1035000000F0FEF94FF4007A40B120680068C00571
:1035100001D5C4F840A00320BDE8F88F216809F068
:10352000FE0008612B46284920460A9A00F030FA2E
:10353000F0BB20684169806900902A4620460A99BC
:1035400000F0BCFA40B1206C04283AD12068016830
:1035500041F40071016034E0FEB2B8F1010F09D00E
:103560002168380A08612A4620460A9900F0A6FA1E
:103570000028E8D1206806612A4620460A9900F012
:103580009DFA0028DFD12068016841F48071016054
:1035900000950022594620460A9B00F0B1F9002808
:1035A000B3D1216809F0FF0040F00100086100E09C
:1035B00007E02B46044920460A9A00F0E9F9002862
:1035C000AAD00120A8E70000020001002DE9F8437D
:1035D000044600680D46DDE90897016898461646DE
:1035E00041F4807101604B4600224FF001112046EA
:1035F000009700F085F948B120680068C00502D541
:103600004FF4007020640320BDE8F883216805F0C2
:10361000FE0008613B464A461549204600F0B8F9CD
:1036200088B920684169806900903A464946204639
:1036300000F044FA48B1206C042804D120680168E5
:1036400041F4007101600120DEE7F5B2B8F1010F2D
:1036500009D02168300A08613A464946204600F000
:103660002DFA0028E7D1206805610020CCE7000092
:103670000200010038B50C4690F83D2000212825B5
:10368000954302680B4605D051699169009180F815
:103690003C3038BD556825F480655560E2435407D9
:1036A00000D50121120601D5828900E0028B80F845
:1036B0003C3092B2FDF705FE38BD00002DE9F04127
:1036C00090F83D300446C26A002120261E4F006853
:1036D0006FF48065082A01D0202A01D1282B04D05C
:1036E000212B17D04561BDE8F081E762426822F4E2
:1036F000E0624260206845612068026822F48062CE
:103700000260216384F83D6084F83E102046FEF795
:1037100019F8E8E7E7622122226384F83D6084F823
:103720003E10416821F4E0614160206845612068F5
:10373000016821F4806101602046FFF733FB2046D9
:10374000FEF715FACFE700000000FFFFF8B590F88C
:103750003D6004460068416821F4E06141602068F2
:10376000002541690091016841F001010160206874
:10377000016821F48061016020684168090520D555
:10378000474F222E48D02A2E46D0616B09684968DF
:103790006185618D19B1216C41F00401216441689A
:1037A00021F400614160606BFDF742FC012808D004
:1037B000606B4763606BFDF7EFFB10B1606B416BB3
:1037C0008847608D08B320684169C943490708D418
:1037D0000069616A0870606A401C6062608D401E0A
:1037E000608520684169C943490608D40069616A57
:1037F0000870606A401C6062608D401E6085608D4C
:1038000018B1206C40F004002064206C00B3204606
:10381000BDE8F840FFF7CEBAA16B09684968618539
:10382000618D19B1216C41F004012164416821F4DA
:1038300000614160A06BFDF7FBFB0128C1D0A06BCC
:103840004763A06BFDF7A8FB0028BAD0A06BB6E7D2
:103850002A2E06D12563282084F83D002046FEF755
:1038600085F994F83D10202028290DD0216B2229BC
:1038700001D0222E07D1256384F83D0084F83E5004
:103880002046FEF773F9F8BD0649E162256384F826
:103890003D0084F83E502046FDF754FFF8BD00007F
:1038A000E92C00080000FFFF70B516460D460446DF
:1038B0001EE02046FFF72AFB08B1012070BD681CFE
:1038C00016D0FDF7F7FC801BA84200D885B9206808
:1038D0004069C04340070BD5002044F8300F202139
:1038E0006173A073216941F0200121612073E4E735
:1038F00020684069C0434007DBD4002070BD000051
:103900002DE9F047984617460D460446C1F3074691
:10391000DDF820902AE000BFB8F1FF3F26D0FDF788
:10392000C9FCA0EB0901414502D8B8F1000F1DD137
:103930002068012E16D0806925EA00000004000CE2
:1039400012D00020B84211D1002044F8300F2021BD
:103950006173A073216941F020012161207301206E
:10396000BDE8F0874069E7E70120EBE72068012E1A
:103970000AD0806925EA00000004000C06D000206F
:10398000B842C9D00020EBE74069F3E70120F7E730
:103990002DE9F047984616460D4604464FF00009BB
:1039A0004FF0200AC1F3074723E020684069C04375
:1039B000400515D42068016841F400710160216858
:1039C0006FF480604861C4F8309084F83DA084F8BA
:1039D0003E90216C41F00401216484F83C9021E088
:1039E000701C06D0FDF766FCA0EB0800B04203D8BF
:1039F00016B1012F1FD021E02068012F15D080695A
:103A000025EA00000004000C18D000BF44F8309FE5
:103A100084F80DA084F80E90216941F02001216105
:103A200084F80C900120BDE8F087406925EA000089
:103A30000004000CEAD12068406901E02068806938
:103A400025EA00000004000CAFD1ECE72DE9F041BD
:103A5000002590460E460446202728E04069C043D2
:103A6000C0060CD454F8301B6FF01000486144F8C5
:103A700010596777A577206A2062257714E0FDF753
:103A800019FCA0EB0800B04200D886B92068406954
:103A9000C04340060BD544F8305F6773A5732069B7
:103AA00040F02000206125730120BDE8F0812068EE
:103AB0004169C9434906D1D40020F6E770B51646DE
:103AC0000D4604461EE02046FFF720FA08B101200B
:103AD00070BD681C16D0FDF7EDFB801BA84200D816
:103AE00085B920684069C04300060BD5002044F822
:103AF000300F20216173A073216941F02001216101
:103B00002073E4E720684069C0430006DBD400204E
:103B100070BD000041060748826942F001028261DF
:103B20000548426822F0E062426042680A4342600F
:103B30007047000000100240000001402DE9F04FE6
:103B400004469148ABB011AFB0E86810299287E8FD
:103B500068106CC80DAF87E86C0050E91423CDE9FC
:103B6000272350E91223CDE9252350F8588900F185
:103B70005C031FAF93E80C109346199350F8682B21
:103B80002A926CC887E86C0050E91820CDE9232000
:103B90000020079008900490059006901B901C90C0
:103BA00009900A900B9003900C901D901E901A9013
:103BB000E2460846FCF791FD05460E4684F00040BB
:103BC000FCF78BFD2A46334601F088FDFCF798FD93
:103BD0006E4F15900DAC0222CDE9004707AE0123D0
:103BE00011460296104604F029F81BAA29A927A815
:103BF0008DE8070001231A461946022004F01EF83A
:103C00001B990798FCF768FB07F1080528601C99C9
:103C10000898FCF761FB68600DF10C0905F12801BB
:103C200000940223CDE901191A461946184604F0FA
:103C300005F809A91FAACDF80090CDE901210223BA
:103C40001A461946184603F0F9FF41460998FCF751
:103C500043FB4F4C594620600A98FCF73DFB6060DF
:103C600019990B98FCF738FBA06051460C98FCF7AB
:103C700033FBE0600DF1940A0223CDE900A40DF1BD
:103C8000740B1A46CDF808B01946012003F0D6FF90
:103C90000DF1680823A9CDF800B0CDE90118012382
:103CA00002221146184603F0C9FF2A991A98FCF718
:103CB00013FB01464FF07E50FCF798FB1A9023A8A7
:103CC000CDE900400222012311460296104603F07E
:103CD000B5FF05F1080B01238DE840091A46194686
:103CE000022003F0ABFFCDF800A0CDE9015801237D
:103CF00002221146184603F0A1FF1A991598FCF705
:103D00003DFB1A90CDF800B00123CDE901861A469B
:103D10001946022003F092FF07992868FCF7DCFAA5
:103D2000386008996868FCF7D7FA7860CDF800B079
:103D3000CDE901A9022301221146184603F07EFFB6
:103D400003991198FCF71AFB039004991298FCF759
:103D500015FB049005991398FCF710FB0590069944
:103D60001498FCF70BFB069005F12800CDF80090A5
:103D70000223CDE901401A461946184603F05EFFBA
:103D800038682BB0BDE8F08F30AB0008E8000020A9
:103D9000884000202DE9F04F04469348ABB000F175
:103DA00078030F4693E8681011A9299281E86810FA
:103DB00000F188050DF134084ECD88E84E00D0E9B9
:103DC0000812CDE92712D0E90A12CDE92512B5E88B
:103DD0000E108846CDF858C0416892469B462A91FD
:103DE0002ECD1FAE86E82E00D0E90C10CDE92310B1
:103DF0000020079008900490059006901B901C905E
:103E000009900A900B9003900C901D901E901A90B0
:103E10003846FCF762FC06460D4684F00040FCF78D
:103E20005CFC32462B4601F059FCFCF769FC6F4FF5
:103E300015900DAC0222CDE9004707AE01231146D3
:103E40000296104603F0FAFE1BAA29A927A88DE8BE
:103E5000070001231A461946022003F0EFFE1B99C2
:103E60000798FCF739FA07F1080528601C990898AB
:103E7000FCF732FA68600DF10C0905F1200000949E
:103E80000223CDE901091A461946184603F0D6FE69
:103E900009A91FAACDF80090CDE9012102231A46F5
:103EA0001946184603F0CAFE41460998FCF714FA71
:103EB0004F4C514620600A98FCF70EFA6060594654
:103EC0000B98FCF709FAA06016990C98FCF704FA15
:103ED000E0600DF1940A0223CDE900A40DF1740B0A
:103EE0001A46CDF808B01946012003F0A7FE0DF1DF
:103EF000680823A9CDF800B0CDE9011801230222FA
:103F00001146184603F09AFE2A991A98FCF7E4F92C
:103F100001464FF07E50FCF769FA1A9023A8CDE9CC
:103F200000400222012311460296104603F086FE4D
:103F300005F1080B01238DE840091A4619460220B5
:103F400003F07CFECDF800A0CDE901580123022248
:103F50001146184603F072FE1A991598FCF70EFAEE
:103F60001A90CDF800B00123CDE901861A46194612
:103F7000022003F063FE07992868FCF7ADF938606A
:103F800008996868FCF7A8F97860CDF800B0CDE929
:103F900001A9022301221146184603F04FFE03999E
:103FA0001198FCF7EBF9039004991298FCF7E6F9E5
:103FB000049005991398FCF7E1F905900699149877
:103FC000FCF7DCF9069005F12001CDF80090022302
:103FD000CDE901411A461946184603F02FFE38680C
:103FE0002BB0BDE8F08F0000F8AA00080001002007
:103FF0009840002010B50220FFF78CFD0120FFF74C
:1040000089FD02F03FFF03F051FE02F0C7FB03F011
:10401000C7FE044A0021044804F07CF80349086004
:1040200010BD0000389E00083D4B00080000002035
:104030002DE9F04385B0002544480095019502958F
:104040000395816941F010018161816901F01001DE
:104050000491816941F020018161816901F02001B1
:104060000491816941F004018161816901F00401D9
:104070000491816941F0080181618069344F00F049
:1040800008004FF4C0440490002221463846FDF752
:104090000CF9DFF8C080002248F214014046FDF719
:1040A00004F9DFF8B49000224FF238014846FDF7DA
:1040B000FCF8009401AA0124032682E870006946F6
:1040C0003846FCF7F5FF04208DE87100694640464C
:1040D000FCF7EEFF082002278DE8A1006946404664
:1040E000FCF7E6FF10208DE8B10069464046FCF77A
:1040F000DFFF4FF470408DE8710069464846FCF7D9
:10410000D7FF200300901548CDE9010469464046D9
:10411000FCF7CEFFE0038DE831006946404603948A
:10412000FCF7C6FF38208DE8310069464846039405
:10413000FCF7BEFF002205212820FDF7B1FD282055
:10414000FDF7A0FD05B0BDE8F083000000100240BF
:104150000010014000080140000C01400000211047
:104160000D4810B50B4901600C49416000214FF426
:1041700080428160C0E9031241618161C1610162D5
:10418000FDF71CFA002803D0BDE81040FCF797BEED
:1041900010BD00000054004080010020A0860100F6
:1041A00010B592B000240F941C2168461094FCF7BF
:1041B00061F8202107A8FCF75DF824482249C0E9EE
:1041C000001441F61F41C0E9024180210461C0E9A9
:1041D0000541FEF7E2FA08B1FCF771FE0F940FA952
:1041E0001A481094FEF746F808B1FCF768FE602004
:1041F000CDE90004029403940494059400226946D6
:1042000012480694FEF763FA08B1FCF758FE0C2238
:1042100069460E48FEF75BFA08B1FCF750FE0794BA
:10422000089409944FF400500A94CDE90B4007A973
:1042300006480E94FDF7F4FF08B1FCF740FE034872
:10424000FEF71EFA12B010BD002C0140D401002070
:1042500010B58CB024216846FCF70CF800241648F1
:1042600009944FF080410A94C0E900144FF6FF71A1
:10427000C0E90241046184610320CDE9000401200A
:10428000CDE902040A210491CDE90540CDE90741B9
:1042900069460948FEF77CF808B1FCF710FE09945E
:1042A00009A905480A94FDF7E5FF002801D0FCF7AD
:1042B00006FE0CB010BD00001C02002010B58CB032
:1042C00024216846FBF7D6FF0024164809941449B8
:1042D0000A94C0E900144FF6FF71C0E9024104617D
:1042E00084610320CDE900040120CDE90204049497
:1042F000CDE90540079469460A480894FEF748F856
:1043000008B1FCF7DCFD099409A906480A94FDF7F9
:10431000B1FF002801D0FCF7D2FD0CB010BD0000A9
:1043200000080040640200200C4810B50A490160F2
:104330004FF4E1314160002181600C22C160C0E98D
:1043400004128161C161FEF7FDFB002803D0BDE8C6
:104350001040FCF7B4BD10BD00380140AC02002095
:10436000FEE7FEE730B40021084B0A465FF000008C
:1043700003EBC004401CC0B262548028F8D3491C2F
:10438000C9B20829F2D330BC00F020B8A840002000
:1043900010B57F2816D83F2914D80723A3EBD103E3
:1043A00001F00701C1F107040121A140064CDBB275
:1043B00004EBC000002AC25CC9B201D00A4300E08D
:1043C0008A43C25410BD0000A840002070B5114EB1
:1043D000002400BF04F1B000C0B2002100F012F9C7
:1043E0000021084600F00EF90021102000F00AF923
:1043F0005FF0000506EBC5000121005D00F002F949
:104400006D1CEDB2802DF5D3641CE4B2082CE1D311
:1044100070BD0000A840002010B5094C206800289D
:104420000CD0322105F0C8F9FFF7D0FF0023206837
:10443000BDE810401A46194604F0C4BF10BD000084
:10444000380100202DE9FF5F203A1F460C468946BF
:1044500002F0FF0A0025DDF838B032E00C2F09D059
:104460001A4901EB0A104FF00008465D300607D5E7
:104470005A4609E016490AEB4A0001EB8000F2E7D0
:10448000BBF1000F12D0002221460098FFF780FFF9
:104490007006641C060EE4B2A4EB0900B84207D112
:1044A00000984C46401CC0B2009008E00122EBE7A7
:1044B00008F1010000F0FF08B8F1080FD6D36D1C19
:1044C000EDB2BD42CAD3BDE8FF9F000024B0000892
:1044D000B0AB00082DE9FF4F81B00027DDF8389020
:1044E0001D46934682463C464FF001084FEA590666
:1044F00023E0281B401E0A22C1B2012000E05043E5
:10450000491EC9B2FBD2BBFBF0F00A21B0FBF1F2AD
:1045100001FB120027B9691E8C4201DA90B1012714
:104520003030C2B206FB04A0C0B24B46CDF80080CA
:104530000299FFF787FF641CE4B2AC42D9D305B0FF
:10454000BDE8F08F06FB04A0C0B24B462022CDF898
:104550000080EDE72DE9F8430E4C8146089D206868
:104560001E4617468846002812D0322105F024F94D
:1045700033463A46414648460095FFF7ABFF206870
:1045800001B00023BDE8F0431A46194604F01ABFF3
:10459000BDE8F883380100202DE9F843184F0446A0
:1045A000164638680D46002827D0322105F004F958
:1045B0004FF0010815E07A2C02D900241035EDB235
:1045C0003A2D03D900242546FFF7CCFECDF8008014
:1045D00032780C2329462046FFF734FF0834E4B232
:1045E000761C30780028E6D1386801B00023BDE899
:1045F000F0431A46194604F0E5BEBDE8F883000012
:10460000380100202DE9F0410C46054604F080FBFE
:10461000DFF85C804FF400470CB1012200E000227B
:1046200039464046FCF741FE124E0024002220216C
:104630003046FCF73AFE280601D5012200E00022B0
:1046400010213046FCF731FE012220213046FCF7D4
:104650002CFE6806641C050EE4B2082CE6D3012289
:1046600039464046FCF721FEBDE8F04104F070BB3E
:1046700000080140000C01402DE9F843804604F099
:1046800047FB0120ADF80000234F00217970ADF801
:104690000000DFF888908403214D4FF6FF7630E06C
:1046A000BDF8000010EA080F01D0012200E000224E
:1046B00004214846FCF7F9FD012221462846FCF773
:1046C000F4FD052001F04EF9002221462846FCF7B2
:1046D000ECFD052001F046F9012221462846FCF7B1
:1046E000E4FD08214846FCF7D3FD20B17878BDF8F9
:1046F000001008437870BDF8000006EA4000ADF8ED
:104700000000BDF80000FF28CAD9102001F00EF902
:10471000BDE8F84304F01CBBA84400200008014099
:10472000001001402DE9FC4700208DF80000012613
:10473000ADF80460324C02464FF400594946204619
:10474000FCF7B3FD2F4D2878FFF796FF6878FFF749
:1047500093FF022045E000BFADF804604FF48045B0
:10476000DFF8A4A0DFF8A4804FF6FF772FE000BFAA
:1047700004F0CEFA012229462046FCF796FD0520DA
:1047800001F0F0F8002229462046FCF78EFD0520B6
:1047900001F0E8F8012229462046FCF786FD0821B1
:1047A0005046FCF775FD50B19DF80010BDF804208F
:1047B00018F8011011439DF8002008F8021004F0C9
:1047C000C7FABDF8040007EA4000ADF80400BDF8E0
:1047D0000400FF28CCD9102001F0A8F89DF80000B3
:1047E000401C8DF800009DF800000928B4D302B0E9
:1047F00049462046BDE8F0470122FCF756BD0000BF
:10480000001001403C01002000080140A8440020A5
:104810007CB500F013F900F011F900F00FF95C4DD0
:104820004FF40054002221462846FCF73EFD10209C
:1048300001F07CF80120FFF71FFF4320FFF71CFF6A
:104840000020FFF719FF0120FFF716FF0020FFF7F8
:1048500013FF0020FFF710FF0020FFF70DFF0020DF
:10486000FFF70AFF0020FFF707FF01222146284635
:10487000FCF71BFD102001F059F8002221462846C4
:10488000FCF713FD0120FFF7F7FE4420FFF7F4FECD
:104890000020FFF7F1FE0120FFF7EEFE0320FFF7F7
:1048A000EBFE0020FFF7E8FE0020FFF7E5FE00200A
:1048B000FFF7E2FE0020FFF7DFFE01222146284637
:1048C000FCF7F3FC102001F031F8002221462846C5
:1048D000FCF7EBFC102001F029F80120FFF7CCFEDB
:1048E0004320FFF7C9FE0020FFF7C6FE0020FFF7B8
:1048F000C3FE5A20FFF7C0FE5A20FFF7BDFE5A2024
:10490000FFF7BAFE5A20FFF7B7FE5A20FFF7B4FEB2
:10491000012221462846FCF7C8FC102001F006F8C9
:10492000012004F0ABFC1B4C1B4D0028606015D02F
:1049300000211820CDE900010B464FF4807217A129
:10494000194805F02FF8012811D04FF49D7317A2D4
:104950001BA120A0009500F0AFFBFEE740F237134B
:1049600012A22AA11BA0009500F0A6FBFEE71421CD
:104970002BA002F009F9A060002808D140F23D13F5
:104980000AA228A113A0009500F096FBFEE77CBDCB
:10499000001001403C01002025B600087073322051
:1049A0007461736B00000000418C00082E2E5C487F
:1049B000415244574152455C7073322E63000000EF
:1049C0007852657475726E203D3D2070645041537D
:1049D00053000000417373657274696F6E206661E5
:1049E000696C65643A20282573292C2066696C65FA
:1049F0002025732C206C696E652025642C2066753B
:104A00006E6374696F6E3A2025730A007073324DBD
:104A10007574657820213D204E554C4C00000000F7
:104A2000707332007073325F706F6F6C5F68616EAD
:104A3000646C6520213D204E554C4C0070B5124DE4
:104A40004FF40054002221462846FCF72EFC10208B
:104A500000F06CFF0120FFF70FFE4220FFF70CFE75
:104A60000020FFF709FE0020FFF706FE0020FFF7F9
:104A700003FE012221462846FCF717FCBDE87040E2
:104A8000102000F053BF0000001001400021022858
:104A900005D0032809D0042809D0002070474FF022
:104AA0008042506A516200B27047034A00E0034AF4
:104AB0001068116000B270472404004024080040D0
:104AC0002DE9F0410D461B4E041E4FF400514FF4EA
:104AD000805705DD01223046FCF7E7FB002204E0A9
:104AE00000223046FCF7E1FB012239463046FCF754
:104AF000DCFB002C00DA64420F4F386804644FF48A
:104B000080414C00002D05DD00223046FCF7CDFB36
:104B1000012204E001223046FCF7C7FB00222146B7
:104B20003046FCF7C2FB002D00DA6D423868456361
:104B3000BDE8F081000C0140D401002008B501F06F
:104B400083FF40B110480090922310A215A11CA031
:104B500000F0B2FAFEE702F077FAFFF759FE4FF4E1
:104B60007A7003F09BFA01F063FE2820FDF78AF8C3
:104B7000214C4FF4FA7510212046FCF78EFB284695
:104B800003F08CFAF7E700005C9E00082E2E2F43FE
:104B90006F72652F5372632F6672656572746F73DF
:104BA0002E6300006A73706F6F6C5F696E697428A2
:104BB00029203D3D204A53504F4F4C5F4F4B000042
:104BC000417373657274696F6E206661696C6564A8
:104BD0003A20282573292C2066696C652025732CC2
:104BE000206C696E652025642C2066756E6374697F
:104BF0006F6E3A2025730A000008014010B54FF08F
:104C0000E020006904F026FF012803D0BDE8104031
:104C100004F01EBB10BD30B58FB028216846FBF7ED
:104C200029FB14210AA8FBF725FB01210804CDE983
:104C300000100024029402250491CDE907504FF49E
:104C4000E01009906846FDF759F908B172B6FEE721
:104C50000F20CDE90A054FF48060CDE90C40022118
:104C60000AA80E94FDF74EF8002801D072B6FEE7B0
:104C70000FB030BD704700000148FDF769BC00006F
:104C8000F4020020F0B50268194B1A4C1A4D4FF08F
:104C90008047984205D0B84203D0A04201D0A84234
:104CA00003D122F070064A683243984205D0B842D8
:104CB00003D0A04201D0A84203D122F44074CA68B4
:104CC00022434C6922F08002224302608A68C26259
:104CD0000A688262984201D1096901630121416138
:104CE0000169C90703D0016921F001010161F0BD2B
:104CF000002C0140000400400008004010B501F005
:104D00001F030121046A99408C430462016A9A409E
:104D10001143016210BD000030B5036A026A22F03F
:104D2000010202624268846924F073050C682C4316
:104D300023F002058B682B430A4DA8420BD123F0C8
:104D40000805CB6822F440722B434D6923F004031D
:104D500015438A692A43426084614968416303625A
:104D600030BD0000002C014030B5026A036A23F018
:104D700010030362436884690D6824F4E64444EA3E
:104D800005248D6822F0200242EA05120B4DA8424C
:104D90000ED1CD6822F0800242EA05124D6923F45B
:104DA000406343EA85038D6922F0400243EA8503AC
:104DB0004360846149688163026230BD002C014018
:104DC00030B5036A026A22F4807202624268C469E2
:104DD00023F4007324F073050C682C438D6843EAB8
:104DE00005230C4DA8420ED1CD6823F4006343EA9D
:104DF00005234D6922F4405242EA05128D6923F4DD
:104E0000806342EA05124260C4614968C16303627B
:104E100030BD0000002C014030B5046A026A22F463
:104E2000805202624268C3690D6823F4E64343EA94
:104E300005238D6824F4005444EA0534064DA84245
:104E400004D14D6922F4804242EA85124260C36176
:104E500049680164046230BD002C014010B5406A0D
:104E60000021C185C184FDF735FD10BD01680C31FD
:104E700051E8002F22F4907241E80023002BF5D175
:104E80000168143151E8002F22F0010241E80023AB
:104E9000002BF5D1016B012909D101680C3151E8D2
:104EA000002F22F0100241E80023002BF5D1202131
:104EB00080F8421000210163704708B590F8421055
:104EC000222901D0022008BD82684FF480539A4203
:104ED00001D1016921B1816A9A421BD04AB10AE02D
:104EE0000268816A5268C2F308020A80816A891CDA
:104EF00008E0026972B10268526802F07F020A702B
:104F0000816A491C8162C18D491E0904090CC18551
:104F100003D01BE002685268F1E70168CA6822F01A
:104F20002002CA600168CA6822F48072CA600168FF
:104F30004A6922F001024A61202180F842100021D2
:104F40004163026B012A03D0FDF76EFE002008BD0D
:104F5000016301680C3151E8002F22F0100241E892
:104F60000023002BF5D101680A68D20602D50A6831
:104F700049680091818DFDF7ACFCE7E770B5044608
:104F800000680169E26821F440511143016121691F
:104F9000A0680843616908432168CA6841F20C634C
:104FA0009A430243CA6020684169A26921F44071B2
:104FB000114341611E492068884202D1FCF768FF15
:104FC00001E0FCF755FF00EBC00101EB0012606847
:104FD00064218000B2FBF0F3B3FBF1F36FF018062D
:104FE0007343B2FBF0F5B2FBF0F605EB8305322319
:104FF00003EB0515B5FBF1F5B6FBF1F605F0F00591
:1050000005EB0615B2FBF0F6B2FBF0F0B0FBF1F0E9
:105010006FF01802504306EB800003EB0010B0FB6A
:10502000F1F0216800F00F002844886070BD000096
:10503000003801402DE9F843984617460D460446CE
:10504000089E24E0701C22D0FCF734F9A0EB080085
:10505000B0421AD8CEB12068C168490717D5802D53
:1050600015D0402D13D00168C94309070FD401683A
:105070000025406800902046FFF7F8FE0820606495
:1050800084F840500120BDE8F8830320FBE7206846
:10509000006835EA000004D00020B842D2D00020D9
:1050A000F1E70120F9E700000148FDF715BC000019
:1050B000AC020020FEE700000FB4054B10B503A9B9
:1050C000044A029800F0A4F810BC5DF814FB00003C
:1050D0006561000878010020490050EAC12018BF2E
:1050E00004204A0D18BF40F0010040F2FF72B2EBFD
:1050F000515F08BF40F00200012808BF052070473B
:105100000907090E002804DB00F1E02080F80014F4
:10511000704700F00F0000F1E02080F8141D704788
:105120002DE9F0414F1E00EBC7010446D1E9000113
:1051300015461E4637F006020DD02A463346FBF7C9
:105140009FF97F1E04EBC703D3E90023FBF7B9FBEC
:1051500037F00602F1D1022F25D0042F13D0062FED
:1051600018BFBDE8F0812A463346FBF789F9D4E938
:105170000A23FBF7A6FB2A463346FBF781F9D4E95D
:105180000823FBF79EFB2A463346FBF779F9D4E95F
:105190000623FBF796FB2A463346FBF771F9D4E961
:1051A0000423FBF78EFB2A463346FBF769F9D4E963
:1051B0000223FBF786FB2A463346FBF761F9D4E965
:1051C0000023BDE8F041FBF77CBB0122FBF76BBC81
:1051D000FBF777BB024A00201107FBF764BC000015
:1051E00001FDFFFF02E008C8121F08C1002AFAD122
:1051F00070477047002001E001C1121F002AFBD157
:105200007047000001490860704700007C010020E1
:105210002DE9FF4F8BB09A460F460446002606E064
:1052200025280BD052460D999047641C761C207897
:105230000028F5D10FB03046BDE8F08F0025A94613
:1052400001227D4900E0054314F8013F203B02FAAA
:1052500003F00842F7D120782E2817D114F8010F57
:1052600045F004052A280ED06FF02F022078A0F117
:10527000300109290AD809EB890102EB410100EB51
:105280000109641CF2E757F8049B641C20786C2821
:105290000DD004DC4C2812D06A2811D104E0742807
:1052A0000DD07A280CD10AE045F4001507E06178AA
:1052B00045F48015814202D1641C05F58015641CFB
:1052C000207869283ED006DC0028B3D063280BD0B4
:1052D000642804D136E0732810D075285CD052467B
:1052E0000D999047761CA5E017F8040B8DF8000087
:1052F00000208DF80100E846012003E057F8048BF8
:105300004FF0FF3069074FF0000501D40AE06D1C33
:105310004D450DDA8542FADB18F805100029F6D163
:1053200006E06D1C8542FCDB18F805100029F8D159
:105330002E4404E018F8010B52460D9990476D1E5B
:10534000F8D277E000200A90C5F302504FF00A0B24
:1053500002280CD001CFC117021E71F100020CDA35
:105360000023D0EB030063EB01012D2208E0FF1DB9
:1053700027F00707F7E80201EEE72A0504D52B22FC
:105380008DF82420012203E0EA070FD02022F7E75E
:105390000DF12008089218E000200A90C5F3025091
:1053A0004FF00A0B022803D001CF00210022EFE7C3
:1053B000FF1D27F00707F7E80201F7E75A460A9BA7
:1053C000FBF7BAF9303208F8012D50EA0102F5D1A5
:1053D000ADEB080000F1200B680701D44FF0010984
:1053E000D94502DDA9EB0B0000E000208146002535
:1053F00006E009A85246405D0D9990476D1C761C49
:1054000008988542F5DB04E0302052460D9990471C
:10541000761CB9F10001A9F10109F5DC05E018F8E5
:10542000010B52460D999047761CBBF10001ABF180
:10543000010BF4DC641CFAE6092801002DE9FE4F9B
:1054400007460E460025684600F098FE00246FF0DF
:105450000F0AE8464FF0010957F8240056F82410C7
:10546000401A00D54042FBF7ECF85146FAF7FCFF32
:1054700058F8241011F0FF4F0BD0FAF7B7FF4FF098
:105480007E51FAF77BFF0A4920F00040884205DC94
:1054900007E0084908440849884202D309FA04F0A1
:1054A0000543641C032CD7DB2846BDE8FE8F0000B3
:1054B000295C0F3E666666C19A99D9002DE9F84FBE
:1054C00004460D4621F0004000917349814211DCF1
:1054D0007249884201DC06D12CB120462946BDE83C
:1054E000F84FFFF772BE6E48002DCCBF6D496E4974
:1054F000BDE8F88F6D49814211DD6D498142D8BF09
:105500004FF0FF366DDD20462946FFF7E5FD042804
:1055100008BFFFF75FFE20462946BDE8F88F6549C2
:10552000654F25F00045814233DD6449814219DD34
:10553000002632464FF0804320462946FBF7C1F94A
:1055400080468A46012220462946FBF7ACFA002213
:105550003B46FBF757FA42465346FBF703F804462F
:105560000D463EE001260022BA463B46204629462B
:10557000FBF7A7F980460F460022534620462946EE
:10558000FBF740FA42463B46FAF7ECFF04460D466D
:1055900027E04B4981421BDDDFF828A102260022CB
:1055A000534620462946FAF76BFF00223B46FBF79D
:1055B00088F980460F460022534620462946FBF7CD
:1055C00021FA42463B46FAF7CDFF04460D4608E075
:1055D000032622462B4600203B49FAF7C3FF044628
:1055E0000D4622462B4610461946FAF749FF8B46D0
:1055F000824602460B46FAF743FF07460246334807
:1056000088460B4606217844FFF78AFD52465B46E2
:10561000FAF736FF82462E488B463A464346052126
:105620007844FFF77DFD3A464346FAF729FF0246E4
:105630000B46002E504659460CDAFBF742F922463B
:105640002B46FAF71DFF01B022462B46BDE8F04F6E
:10565000FBF7DBB9FBF735F922462B46FAF710FFCB
:105660001C4A7A4402EBC603D3E90023FBF7CAF9CC
:1056700022462B46FBF7C6F9174A7A4402EBC603CB
:10568000D3E90023FBF7C1F9009A002AB8BF81F0E3
:105690000041BDE8F88F0000000010440000F07FDA
:1056A000182D4454FB21F93FFB21F9BF0000DC3FDA
:1056B0000000203E0000F33F0000F03F0000E63F06
:1056C000008003400000F83F0000F0BF966100003A
:1056D00054610000F2600000BA6000002DE9F04D56
:1056E0009446CCF1000423F000464CEA0404594FE0
:1056F00046EAD4749A46884621F00042BC4206D855
:10570000454240EA050442EAD474BC4204D9BDE8EB
:10571000F04D6246FFF75CBDAAF14055A5F17F65EB
:1057200055EA0C040BD0022404EAAA744A4DDFF8AF
:105730002CE144EAD87452EA000B04D00CE0BDE836
:10574000F04DFFF7BBBE002C14BF012CBDE8F08D5F
:10575000022C30D0032C32D056EA0C0B0AD0BE42B9
:1057600020D1BA4209D126F0804622F08042334649
:10577000114617E000291ADB25E0DFF8E4B0FB440E
:10578000002C04BFDBE90001BDE8F08D012C02BF55
:10579000DBE9000181F00041BDE8F08D022C0AD068
:1057A000032C0CD0BA4212D1B8F1000F0BDA2A4800
:1057B0002C49BDE8F08D28462B49BDE8F08D2846E0
:1057C0007146BDE8F08D24482849BDE8F08D921B54
:1057D00012153C2AC4BF204F244E10DCBAF1000F32
:1057E000BEBF12F13C0F00273E4608DB6246FAF7C7
:1057F000B9FE21F00041FFF761FE07460E4694B165
:10580000012C08BF86F000460DD0194A194B022C16
:105810003846314615D0FBF7F5F82A46BDE8F04D7D
:10582000114BFBF7EFB80022134638463146FBF721
:10583000EFF804BF0220FFF7E5FC38463146BDE82B
:10584000F08DFBF7DFF82A46BDE8F04D064BFBF77D
:10585000DCB800000000F07F182D4454FB2109C083
:105860004E600000FB21F9BFFB210940FB21F93FFD
:10587000075C143326A6A13C88B020216846FAF7BD
:10588000F9FC264D264C274E4FF0FF384146306933
:1058900003F092FF0128F9D10221234801F016FB01
:1058A0000220FFF7F3F847420420FFF7EFF84142E8
:1058B000384606AA07ABFBF705FB1B494868019071
:1058C00089680291FBF732F9B060F1680844FAF791
:1058D000B8FE04900590A84201D9284602E0A042F3
:1058E00000DD2046049005992846814203D82046D1
:1058F000814200DC08460590FAF7C2FE074604988C
:10590000FAF7BEFE3946FFF7DBF870690028BDD014
:1059100020236A46002101F04BFAB7E700409CC5FE
:1059200000409C45D00000202040002070B5054676
:105930000024FCF7BDFA0A494FF0E023B0FBF1F276
:1059400099696A439869091A002901DD0C4402E04B
:105950005D6921446C18944201D20146F2E770BDA2
:1059600040420F0000EBC000C0000521B0FBF1F089
:10597000401EFDD2704708B560B120208DF80000B0
:1059800028208DF8010030208DF8020038208DF895
:10599000030004E0A32204216846FAF764FC6A4687
:1059A000042140F69E2002F01FF901F0E5FD08BD3C
:1059B0003EB5044602208DF80000CA208DF8010093
:1059C000E3208DF8020009208DF803006A460421C7
:1059D000682002F009F9A3208DF80000610609D5BE
:1059E000C0218DF80110C8218DF80210C2218DF858
:1059F000031005E08DF801008DF802008DF803001A
:105A000014F4C07F09D0C4218DF80410CC218DF886
:105A10000510C6218DF8061005E08DF804008DF8FC
:105A200005008DF806008DF808008DF807008DF848
:105A300009006A460A2140F6A72002F0D5F8A0071F
:105A40004FF0D80503D020208DF8000001E08DF83C
:105A500000506A46012140F6B62002F0C5F8A006C3
:105A600001D5012000E0002000F08EF814F4C07F82
:105A70001ED0E0050AD5B2208DF800008B208DF8ED
:105A80000100B6208DF802009B2009E0B0208DF8BF
:105A9000000080208DF80100B4208DF802009020D5
:105AA0008DF803006A46042140F6A22002F09CF81B
:105AB000E1074FF40B6022D0F8218DF800106A4600
:105AC000012102F091F8FA21072000F097FA07204F
:105AD00000F062FA012000F07FFA642000F022FB5F
